:1000000026C1000054C1000052C1000050C10000D0
:100010004EC100004CC100004AC1000048C10000B0
:1000200046C1000044C1000042C1000040C10000C0
:100030003EC100003CC100003AC1000038C10000D0
:1000400036C1000034C1000032C1000030C10000E0
:100050002EC100002CC100002AC1000015C50000FF
:1000600026C10000DBC40000B0C4000020C10000B5
:100070001EC100001CC100001AC1000018C1000010
:1000800016C1000014C1000012C1000010C1000020
:100090000EC100000CC100000AC1000008C1000030
:1000A00006C1000004C1000002C1000000C1000040
:1000B000FEC00000FCC00000FAC00000F8C0000054
:1000C000F6C00000F4C00000F2C00000F0C0000064
:1000D000EEC00000ECC00000EAC00000E8C0000074
:1000E000E6C00000A702AA0299029D02A302E10253
:1000F000AE02B202B802BC02C002C602CA02CE02FE
:10010000E102D402D802DC029B03A003A503AF03E3
:10011000B9033204C303CB03D303DD03E703F103C5
:1001200000040A04320414041E0428040000210000
:10013000240027002A002D003000330001010000B8
:10014000040107010A0100002200250028002B00FD
:100150002E003100340002010000050108010B01EE
:10016000000020002300260029002C002F00320070
:100170000001000003010601090105050505070549
:1001800008080808020202020A0A08080404040413
:10019000010101010101010103030303030303033F
:1001A000040707070C0C0C0C0C0C0C0C02020202CE
:1001B00006060606060606060B0B0B0B0B0B0B0BB7
:1001C0000102102020080810204010204080020169
:1001D000020108040201010204081020408080404E
:1001E000201008040201800402018040201008044D
:1001F00002010804020101020408102040800102EB
:1002000004081020408000000A0B02090C0D0E08A3
:1002100007030401000000000000000000000000CF
:1002200000000000000000000000000000000000CE
:10023000000012111000000000000000000000008B
:100240000000000000000000000000008E051124E6
:100250001FBECFEFD1E2DEBFCDBF00E00CBF12E08A
:10026000A0E0B2E0E6E5F6E100E00BBF02C00790D7
:100270000D92AE34B107D9F723E0AEE4B2E001C08D
:100280001D92A635B207E1F711E0C7E2D1E000E028
:1002900006C021970109802FFE010E94D609C632AF
:1002A000D10780E00807A9F7B5D40C94290BA8CE94
:1002B000CF92DF92EF92FF920F931F93CF93DF9332
:1002C0006C017A018B01C0E0D0E0CE15DF0589F02A
:1002D000D8016D918D01D601ED91FC910190F081D5
:1002E000E02DC6011995892B11F47E0102C02196DB
:1002F000ECCFC701DF91CF911F910F91FF90EF904D
:10030000DF90CF900895089580E090E00895FC017B
:10031000538D448D252F30E0842F90E0821B930B6A
:10032000541710F0CF96089501970895FC01918D10
:10033000828D981761F0828DDF01A80FB11D5D9647
:100340008C91928D9F5F9F73928F90E008958FEFB5
:100350009FEF0895FC01918D828D981731F0828D69
:10036000E80FF11D858D90E008958FEF9FEF0895C0
:10037000FC01918D228D892F90E0805C9F4F821B24
:1003800091098F739927089589E692E0F1DF21E0C2
:10039000892B09F420E0822F0895FC01848DDF0170
:1003A000A80FB11DA35ABF4F2C91848D90E00196E8
:1003B0008F739927848FA689B7892C93A089B189D7
:1003C0008C9180648C93938D848D981306C00288E1
:1003D000F389E02D80818F7D80830895EF92FF92D5
:1003E0000F931F93CF93DF93EC0181E0888F9B8D58
:1003F0008C8D981305C0E889F989808185FD23C01B
:10040000F62E0B8D10E00F5F1F4F0F731127E02E9C
:100410008C8DE8120BC00FB607FCFACFE889F9897A
:10042000808185FFF5CFCE01B8DFF2CF8B8DFE0145
:10043000E80FF11DE35AFF4FF0820B8FEA89FB8929
:100440008081806207C0EE89FF896083E889F9892D
:1004500080818064808381E090E0DF91CF911F9163
:100460000F91FF90EF900895CF93DF93EC01888D6B
:100470008823C1F0EA89FB89808185FD05C0A889B0
:10048000B9898C9186FD0EC00FB607FCF5CF80812F
:1004900085FFF2CFA889B9898C9185FFEDCFCE0178
:1004A0007CDFE8CFDF91CF91089580E090E0892B49
:1004B00019F06ADF811125C080E090E0892B41F0BE
:1004C00080E090E0892B21F00E94000081111CC087
:1004D00080E090E0892B41F080E090E0892B21F0D2
:1004E0000E940000811113C080E090E0892BA1F0F0
:1004F00080E090E0892B81F00E94000081110AC009
:1005000008950E940000D8CF0E940000E1CF0E9411
:100510000000EACF0C940000089590E0FC013197B0
:10052000E231F10508F04DC08827EE58FF4F8F4F9C
:100530003DC7809180008F7703C0809180008F7DC0
:1005400080938000089580918000877FF9CF84B5E3
:100550008F7702C084B58F7D84BD08958091B000EF
:100560008F7703C08091B0008F7D8093B000089595
:10057000809190008F7707C0809190008F7D03C09D
:1005800080919000877F8093900008958091A000D3
:100590008F7707C08091A0008F7D03C08091A0005D
:1005A000877F8093A0000895809120018F7707C0F6
:1005B000809120018F7D03C080912001877F8093EF
:1005C00020010895CF93DF93282F30E0F901EA5FEF
:1005D000FD4F8491F901E054FE4FD491F901E658A2
:1005E000FE4FC491CC2389F0811197DFEC2FF0E00E
:1005F000EE0FFF1FE05AFE4FA591B491EC91ED2351
:1006000081E090E021F480E002C080E090E0DF91A2
:10061000CF9108951F93CF93DF93282F30E0F901F6
:10062000EA5FFD4F8491F901E054FE4FD491F90146
:10063000E658FE4FC491CC23C1F0162F81116DDF17
:10064000EC2FF0E0EE0FFF1FEA5BFE4FA591B49197
:100650008FB7F894111105C09C91ED2FE095E92317
:1006600002C0EC91ED2BEC938FBFDF91CF911F91E6
:100670000895CF93DF9390E0FC01E054FE4F249166
:10068000FC01E658FE4F8491882361F190E0880FC9
:10069000991FFC01E45DFE4FC591D491FC01EA5B1A
:1006A000FE4FA591B491611109C09FB7F89488815C
:1006B000209582238883EC912E230BC0623061F455
:1006C0009FB7F8943881822F809583238883EC919B
:1006D0002E2B2C939FBF06C08FB7F894E8812E2B4A
:1006E00028838FBFDF91CF9108951F93CF93DF931E
:1006F000182FEB0161E0BDDF209711F460E004C02A
:10070000CF3FD10531F461E0812FDF91CF911F916F
:1007100081CFE12FF0E0EA5FFD4FE4914E2F50E0F2
:10072000FA013197E231F10508F09CC08827EC57B7
:10073000FF4F8F4F3BC684B5806884BDC7BD97C04F
:1007400084B5806284BDC8BD92C0809180008068FD
:1007500080938000D0938900C093880088C08091E6
:100760008000806280938000D0938B00C0938A00C9
:100770007EC080918000886080938000D0938D003F
:10078000C0938C0074C08091B00080688093B000EA
:10079000C093B3006CC08091B00080628093B000C1
:1007A000C093B40064C080919000806880939000F2
:1007B000D0939900C09398005AC0809190008062B5
:1007C00080939000D0939B00C0939A0050C080917A
:1007D0009000886080939000D0939D00C0939C000F
:1007E00046C08091A00080688093A0008091A00006
:1007F0008F7B8093A000D093A900C093A80037C03E
:100800008091A00080628093A000D093AB00C09341
:10081000AA002DC08091A00088608093A000D09392
:10082000AD00C093AC0023C080912001806880930C
:100830002001D0932901C093280119C08091200183
:10084000806280932001D0932B01C0932A010FC0B6
:1008500080912001886080932001D0932D01C09366
:100860002C0105C0C038D1050CF04DCF47CFDF912A
:10087000CF911F9108952FB7F89460915302709112
:10088000540280915502909156022FBF0895CF9245
:10089000DF92EF92FF920F931F93CF93DF93EC01C0
:1008A000888190DE8C018A819B810817190729F0C5
:1008B000E2DF6E837F8388879987DDDFCE80DF80EC
:1008C000E884F984DC01CB018C199D09AE09BF09CC
:1008D000CA84DB84EC84FD84C816D906EA06FB06CC
:1008E00058F48C819D810817190731F01D830C8302
:1008F00081E00130110509F080E01B830A83DF915C
:10090000CF911F910F91FF90EF90DF90CF900895BE
:100910009CD66115710579F0FB0101900020E9F783
:100920003197AF01461B570BDC01ED91FC91028022
:10093000F381E02D199480E090E008954F925F924A
:100940006F927F92EF92FF920F931F93CF93DF935B
:10095000CDB7DEB7A1970FB6F894DEBF0FBECDBFFF
:100960007C01FA01CB0119A2223008F42AE08E01A1
:100970000F5D1F4F422E512C612C712CBF01A30122
:100980009201B4D4F901CA01015011096A3014F47A
:10099000605D01C0695CD8016C93232B242B252B4F
:1009A00069F7B801C701B5DFA1960FB6F894DEBFAD
:1009B0000FBECDBFDF91CF911F910F91FF90EF90B0
:1009C0007F906F905F904F9008951F920F920FB697
:1009D0000F9211240BB60F922F933F934F935F9377
:1009E0006F937F938F939F93AF93BF93EF93FF93F7
:1009F00089E692E0D2DCFF91EF91BF91AF919F9198
:100A00008F917F916F915F914F913F912F910F90B7
:100A10000BBE0F900FBE0F901F9018951F920F9254
:100A20000FB60F9211240BB60F922F938F939F93B3
:100A3000EF93FF93E0917902F0917A028081E09147
:100A40007F02F091800282FD12C09081809182022B
:100A50008F5F8F7320918302821751F0E0918202A1
:100A6000F0E0E759FD4F958F8093820201C08081AD
:100A7000FF91EF919F918F912F910F900BBE0F904F
:100A80000FBE0F901F9018951F920F920FB60F92E6
:100A900011242F933F938F939F93AF93BF93809194
:100AA000530290915402A0915502B0915602309198
:100AB000520223E0230F2D3720F40196A11DB11D12
:100AC00005C026E8230F0296A11DB11D20935202F6
:100AD0008093530290935402A0935502B093560210
:100AE00080914E0290914F02A0915002B09151021C
:100AF0000196A11DB11D80934E0290934F02A093C9
:100B00005002B0935102BF91AF919F918F913F914D
:100B10002F910F900FBE0F901F901895CF92DF92DC
:100B2000EF92FF92E9E6F2E01382128288EE93E000
:100B3000A0E0B0E084839583A683B7838AE192E046
:100B40009183808385EC90E09587848784EC90E0A6
:100B50009787868780EC90E0918B808B81EC90E08A
:100B6000938B828B82EC90E0958B848B86EC90E06B
:100B7000978B868B118E128E138E148EE6E0F3E027
:100B800016821782108611861286138614861586A1
:100B900016861786108A118A128A138A148A158A71
:100BA0008EE090E025D4FC0182E090E09183808388
:100BB0001382128215821482168217821086118681
:100BC00082E3C82ED12CE12CF12CC286D386E48698
:100BD000F586F0935103E09350038EE090E008D443
:100BE000FC0183E090E0918380831382128215825E
:100BF00014821682178210861186C286D386E486F6
:100C0000F586F0934F03E0934E03FF90EF90DF9053
:100C1000CF900895CF93DF9300D000D0CDB7DEB74B
:100C2000789484B5826084BD84B5816084BD85B5C7
:100C3000826085BD85B5816085BD80916E008160D3
:100C400080936E0010928100809181008260809379
:100C5000810080918100816080938100809180007B
:100C60008160809380008091B10084608093B100A6
:100C70008091B00081608093B0008091910082608B
:100C80008093910080919100816080939100809188
:100C900090008160809390008091A1008260809399
:100CA000A1008091A10081608093A1008091A000AB
:100CB00081608093A0008091210182608093210156
:100CC00080912101816080932101809120018160C8
:100CD0008093200180917A00846080937A008091D3
:100CE0007A00826080937A0080917A00816080939C
:100CF0007A0080917A00806880937A001092C10017
:100D000010924A0310924B0310924C0310924D0321
:100D1000109208031092090310920A0310920B0319
:100D2000AADD6B017C014B015C0128EB820E2BE0FC
:100D3000921EA11CB11C9FDD6C157D058E059F05C3
:100D400028F086169706A806B906A8F789E692E065
:100D50009093490380934803E0917902F0917A02DD
:100D600082E08083E0917502F09176021082E0913A
:100D70007702F091780280E1808310928102E09105
:100D80007D02F0917E0286E08083E0917B02F0910B
:100D90007C02808180618083E0917B02F0917C0203
:100DA000808188608083E0917B02F0917C02808169
:100DB00080688083E0917B02F0917C0280818F7D4E
:100DC000808359DD609308037093090380930A03BD
:100DD00090930B0368E272E080914803909149037D
:100DE00098DD49DD6B017C014B015C013AE0830E2B
:100DF000911CA11CB11C3FDD6C157D058E059F0566
:100E000028F086169706A806B906A8F781E0809311
:100E10001C0361E086E02DDC61E089E02ADC61E012
:100E200087E027DC61E08AE024DC61E088E021DC07
:100E300061E08BE01EDC60E084E01BDC60E086E3C8
:100E400018DCE4EF8E2E99249394A12CB12CF0E4BD
:100E50003F2E412CA4E05A2E612C712C2224239485
:100E600003E010E008DD672B682B692B39F403DD04
:100E7000623071058105910508F407C1FCDC6093BF
:100E80006502709366028093670290936802C09037
:100E90006102D0906202E0906302F09064026C15EF
:100EA0007D058E059F0540F4609361027093620298
:100EB0008093630290936402C0906102D0906202BA
:100EC000E0906302F09064029B01AC012C193D0993
:100ED0004E095F0969017A013AEFC316D104E104B2
:100EE000F10408F4D2C060936102709362028093AF
:100EF0006302909364028092140390921503A0926F
:100F00001603B0921703109218031092190310924F
:100F10001A0310921B0380910C0390910D03A09172
:100F20000E03B0910F038093100390931103A093CD
:100F30001203B09313039FDC60930C0370930D03B3
:100F400080930E0390930F0396DC609308037093D5
:100F5000090380930A0390930B038DDC6B017C01E2
:100F60006AE372E08091480390914903D2DC2AE061
:100F700041E050E060E070E08091480390914903C7
:100F8000DDDC61E472E08091480390914903C1DCAB
:100F90002AE0B701A6018091480390914903CEDC75
:100FA00063E472E08091480390914903B2DC809140
:100FB0000C0390910D03A0910E03B0910F03B701A4
:100FC000A601481B590B6A0B7B0B2AE08091480352
:100FD00090914903B3DC63E472E0809148039091FF
:100FE000490397DC40910C0350910D0360910E036F
:100FF00070910F038091100390911103A09112033F
:10100000B0911303481B590B6A0B7B0B2AE08091AC
:1010100048039091490392DC65E472E080914803B3
:101020009091490376DC27DCAB01BC012AE080917A
:1010300048039091490382DCE0904803F090490313
:1010400067E472E0C70165DC67E372E0C70161DC59
:1010500012DC6B017C019B01AC012B5F3F4F4F4FBA
:101060005F4F29833A834B835C8305DC6C157D05D8
:101070008E059F0508F02FC1FEDB60930C03709373
:101080000D0380930E0390930F0380917B00877F65
:1010900080937B0030927C0080917A008064809302
:1010A0007A0080917A0086FDFCCFA0917800809133
:1010B0007900B0E0B82B26EB33E080D1A301920198
:1010C00037D169017A0182E3C80ED11CE11CF11C01
:1010D000C0920002D0920102E0920202F09203025A
:1010E00084E070DA21E0892B09F420E0209360028B
:1010F000211124C0C0DB20915C0230915D0240913F
:101100005E0250915F02DC01CB01821B930BA40BAA
:10111000B50BC816D906EA06FB0608F05BC0F090CE
:101120005B02F224F0925B026F2D86E073DA6F2D82
:1011300087E070DA6F2D88E06DDA43C09CDB209188
:101140005C0230915D0240915E0250915F02DC01D1
:10115000CB01821B930BA40BB50BC816D906EA066C
:10116000FB06C0F58091590290915A020196B80190
:101170000AD17C0190935A028093590220E132E017
:101180003A832983C12CD12CCE14DF0441F4F6011B
:10119000EE0FFF1FE05FFD4F61E0808104C060E063
:1011A000A981BA818C9136DABFEFCB1ADB0A29818B
:1011B0003A812E5F3F4F3A83298334E0C316D1042E
:1011C00019F759DB60935C0270935D0280935E02B5
:1011D00090935F02809150039091510358DB8823D4
:1011E000C9F180915702909158020196B801CBD075
:1011F0006C0190935802809357024AE0E42E42E03B
:10120000F42E40E050E0880F991F9C01265F3D4F6F
:101210003A832983C416D50659F464E670E0A9819F
:10122000BA818C914D835E8360DA4D815E8109C005
:1012300060E070E0F70180814D835E8356DA5E8165
:101240004D814F5F5F4FF2E0EF0EF11C43305105CF
:1012500009F73FC080914E0390914F0318DB88231C
:10126000C1F180915702909158020196B8018BD03C
:101270006C0190935802809357022AE0E22E22E0FC
:10128000F22E40E050E0880F991F9C01265F3D4FF1
:101290003A832983C416D50659F464E670E0A9811F
:1012A000BA818C914D835E8320DA4D815E8109C0C5
:1012B00060E070E0F70180814D835E8316DA5E8125
:1012C0004D814F5F5F4FF2E0EF0EF11C433051054F
:1012D00009F7EBD8C7CD29813A814B815C8126176C
:1012E00037074807590708F0C0CEC6CEA1E21A2E2C
:1012F000AA1BBB1BFD010DC0AA1FBB1FEE1FFF1FBA
:10130000A217B307E407F50720F0A21BB30BE40B09
:10131000F50B661F771F881F991F1A9469F7609550
:101320007095809590959B01AC01BD01CF0108950A
:10133000052E97FB16F400940FD057FD05D0D6DF8D
:1013400007FC02D046F408C0509540953095219591
:101350003F4F4F4F5F4F08959095809570956195E1
:101360007F4F8F4F9F4F0895A29FB001B39FC00141
:10137000A39F700D811D1124911DB29F700D811DC1
:101380001124911D089597FB072E16F4009406D0A2
:1013900077FD08D019D007FC05D03EF490958195D3
:1013A0009F4F0895709561957F4F0895EE0FFF1F31
:1013B000881F8BBF0790F691E02D1994D5DFB7FFFA
:1013C0000895821B930B0895AA1BBB1B51E107C014
:1013D000AA1FBB1FA617B70710F0A61BB70B881FC5
:1013E000991F5A95A9F780959095BC01CD01089554
:1013F000CF93DF938230910510F482E090E0E0918A
:101400005403F091550320E030E0C0E0D0E0309785
:1014100011F14081518148175907C0F04817590709
:1014200061F482819381209719F09B838A832BC07A
:10143000909355038093540326C02115310519F06C
:101440004217530718F49A01BE01DF01EF01028031
:10145000F381E02DDCCF2115310509F1281B390B73
:101460002430310590F412968D919C91139761155B
:10147000710521F0FB019383828304C0909355038F
:1014800080935403FD01329644C0FD01E20FF31F27
:1014900081939193225031092D933C933AC020912E
:1014A000520330915303232B41F4209106023091D3
:1014B000070230935303209352032091040230918A
:1014C00005022115310541F42DB73EB740910802C0
:1014D00050910902241B350BE0915203F091530304
:1014E000E217F307A0F42E1B3F0B2817390778F0FB
:1014F000AC014E5F5F4F2417350748F04E0F5F1F5A
:1015000050935303409352038193919302C0E0E0C0
:10151000F0E0CF01DF91CF9108950F931F93CF9308
:10152000DF93009709F48CC0FC013297138212827A
:1015300000915403109155030115110581F4208188
:101540003181820F931F209152033091530328174A
:10155000390779F5F0935303E093520371C0D80132
:1015600040E050E0AE17BF0750F412962D913C9129
:101570001397AD012115310509F1D901F3CF9D0173
:10158000DA013383228360817181860F971F82176E
:10159000930769F4EC0128813981260F371F2E5FEC
:1015A0003F4F318320838A819B8193838283452BA4
:1015B00029F4F0935503E093540342C01396FC932F
:1015C000EE931297ED01499159919E01240F351F19
:1015D000E217F30771F480819181840F951F0296C1
:1015E00011969C938E938281938113969C938E93F4
:1015F0001297E0E0F0E0D80112968D919C9113973C
:10160000009719F0F8018C01F6CF8D919C9198010B
:101610002E5F3F4F820F931F20915203309153034F
:101620002817390769F4309729F41092550310925E
:10163000540302C013821282109353030093520387
:10164000DF91CF911F910F91089581E090E0F89480
:0616500000C0F894FFCF7A
:10165600F401000000005603800009000A000B0098
:1016660006000700080000000000EE01580187018F
:101676003402B8019601AA01564D4450565F317C9A
:10168600315F564D4450560D0A00564D4450455F45
:0E169600003A323A007C005F564D4450450049
:00000001FF
